:100000000C94A3000C94CC040C94A5040C94F3045D
:100010000C94F3040C94F3040C94CB000C94CB00DC
:100020000C94CB000C94CB000C94CB000C94CB0024
:100030000C94CB000C94CB000C94CB000C94CB0014
:100040000C945B040C94CB000C941D030C94F702ED
:100050000C94CB000C94CB000C94CB000C94CB00F4
:100060000C94CB000C94CB00000000002300260071
:10007000290000000000250028002B0000000008D7
:10008000000201000003040700000000000000005F
:100090007E306D79335B5F707F7B771F4E3D4F47BE
:1000A0000000000000000000000000000000000050
:1000B00000B022415B496F024E7863318001802598
:1000C0007E306D79335B5F707F7BA0A00D0919E5F1
:1000D0007D771F4E3D4F475E37307C0F0E00157EFB
:1000E00067FE055B0F3E3E0037336D4E13786208A6
:1000F000207D1F0D3D4F477B17107C0F0C00151DF9
:100100006773055B0F1C1C00373B6D4E3078400059
:1001100000000000240027002A000102040810202B
:100120004080010204081020010204081020040489
:10013000040404040404020202020202030303038F
:100140000303B80EBE0811241FBECFEFD8E0DEBFF8
:10015000CDBF23E0AEE2B1E001C01D92AF34B207E3
:10016000E1F711E0A0E0B1E0EAEAF8E202C00590B0
:100170000D92AE32B107D9F710E0C2EAD0E004C068
:100180002197FE010E940712C13AD107C9F70E94C8
:10019000CC080C9448140C9400000895CF92DF9280
:1001A000EF92FF920F931F93CF93DF936C017A012D
:1001B0008B01C0E0D0E0CE15DF0589F0D8016D914C
:1001C0008D01D601ED91FC910190F081E02DC601E9
:1001D0000995892B11F47E0102C02196ECCFC7014D
:1001E000DF91CF911F910F91FF90EF90DF90CF9013
:1001F0000895FC01538D448D252F30E0842F90E02D
:10020000821B930B541710F0CF9608950197089511
:10021000FC01918D828D981761F0828DDF01A80F0E
:10022000B11D5D968C91928D9F5F9F73928F90E030
:1002300008958FEF9FEF0895FC01918D828D98179F
:1002400031F0828DE80FF11D858D90E008958FEFDC
:100250009FEF0895FC01918D228D892F90E0805CA5
:100260009F4F821B91098F739927089580E791E032
:100270000E942A0121E0892B09F420E0822F0895B1
:10028000FC01848DDF01A80FB11DA35ABF4F2C9133
:10029000848D90E001968F739927848FA689B78902
:1002A0002C93A089B1898C9180648C93938D848DDB
:1002B000981306C00288F389E02D80818F7D8083AA
:1002C0000895EF92FF920F931F93CF93DF93EC016A
:1002D00081E0888F9B8D8C8D981305C0E889F98902
:1002E000808185FD24C0F62E0B8D10E00F5F1F4F1F
:1002F0000F731127E02E8C8DE8120CC00FB607FC8F
:10030000FACFE889F989808185FFF5CFCE010E9477
:100310004001F1CF8B8DFE01E80FF11DE35AFF4F35
:10032000F0820B8FEA89FB898081806207C0EE89A9
:10033000FF896083E889F98980818064808381E016
:1003400090E0DF91CF911F910F91FF90EF90089572
:10035000CF93DF93EC01888D8823C9F0EA89FB896C
:10036000808185FD05C0A889B9898C9186FD0FC063
:100370000FB607FCF5CF808185FFF2CFA889B98938
:100380008C9185FFEDCFCE010E944001E7CFDF9138
:10039000CF91089580E090E0892B29F00E943601EA
:1003A00081110C94000008953FB7F89480913801B2
:1003B00090913901A0913A01B0913B0126B5A89BDB
:1003C00005C02F3F19F00196A11DB11D3FBFBA2FE7
:1003D000A92F982F8827820F911DA11DB11DBC0147
:1003E000CD0142E0660F771F881F991F4A95D1F70C
:1003F0000895089580E090E0089508950895862F67
:10040000642FE0913E01F0913F01309711F0A90176
:1004100009940895CB01E0913C01F0913D013097A2
:1004200009F009940895862FE0914401F091450167
:10043000309711F0BA0109940895862FE091460192
:10044000F0914701309711F0BA0109940895862F71
:10045000E0914001F0914101309711F0BA01099407
:100460000895862FE0914201F0914301309711F0F9
:10047000BA0109940895862FE0914801F09149014D
:10048000309711F0BA0109940895862FE0914A013E
:10049000F0914B01309711F0BA0109940895823020
:1004A000A1F0833029F5709331016093300184E627
:1004B00097E0909303018093020180916900837F0C
:1004C000846080936900E99A11C070932F01609352
:1004D0002E018AE697E090930101809300018091BC
:1004E00069008C7F816080936900E89A81E00895BB
:1004F00080E00895009721F0805C9F4F0C941C08C9
:10050000089570E00C94CF07FC0101900020E9F7FA
:100510003197BF01681B790BAC0181E70C94CF07C1
:100520000F931F93CF93DF93EC01888199810097FC
:1005300029F02A813B812617370788F48B016F5FEA
:100540007F4F0E943A13009761F0998388831B8341
:100550000A832C813D81232B11F4FC01108281E060
:1005600001C080E0DF91CF911F910F910895EF922C
:10057000FF920F931F93CF93DF93EC017B018A01CE
:10058000BA010E9490022881398181110DC0211584
:10059000310519F0C9010E94A212198218821D8228
:1005A0001C821B821A8206C01D830C83B701C901FD
:1005B0000E940D14CE01DF91CF911F910F91FF90FA
:1005C000EF900895FC01118210821382128215822D
:1005D00014826115710551F0FB0101900020E9F7CB
:1005E0003197AF01461B570B0C94B70208951F9229
:1005F0000F920FB60F9211242F933F934F935F9357
:100600006F937F938F939F93AF93BF93EF93FF93DA
:1006100080E791E00E944001FF91EF91BF91AF917F
:100620009F918F917F916F915F914F913F912F910A
:100630000F900FBE0F901F9018951F920F920FB63C
:100640000F9211242F938F939F93EF93FF93E09139
:100650008001F09181018081E0918601F091870114
:1006600082FD12C09081809189018F5F8F732091EC
:100670008A01821751F0E0918901F0E0E059FE4FC4
:10068000958F8093890101C08081FF91EF919F91A7
:100690008F912F910F900FBE0F901F90189590E0A3
:1006A000FC01E458FF4F3491FC01E65EFE4F2491BB
:1006B000FC01E25DFE4FE491EE2309F43BC03323DD
:1006C00039F1333091F038F43130A9F0323001F59E
:1006D00084B58F7D12C0373091F03830A1F03430BE
:1006E000B9F4809180008F7D03C0809180008F7766
:1006F000809380000DC084B58F7784BD09C0809140
:10070000B0008F7703C08091B0008F7D8093B000E0
:10071000F0E0EE0FFF1FEE58FF4FA591B4918FB799
:10072000F894EC91611103C020952E2301C02E2B6B
:100730002C938FBF0895AF92BF92CF92DF92EF922A
:10074000FF920F931F93CF93DF936B01833058F584
:10075000282F30E0A9014E5C5E4F7A01FA0100813A
:10076000202F30E062177307F1F0182F110F110FCF
:10077000110FC0E0D0E0AA24A394B12CC5010C2E27
:1007800001C0880F0A94EAF7682F6C21802368174C
:1007900021F08C2F810F0E944F032196C830D10584
:1007A00069F7F701C082DF91CF911F910F91FF9000
:1007B000EF90DF90CF90BF90AF900895CF93DF93ED
:1007C00090E0FC01E65EFE4F2491FC01E25DFE4FED
:1007D0008491882361F190E0880F991FFC01E05F0C
:1007E000FE4FC591D491FC01EE58FF4FA591B491F5
:1007F000611109C09FB7F89488812095822388836E
:10080000EC912E230BC0623061F49FB7F8943881CD
:10081000822F809583238883EC912E2B2C939FBF6E
:1008200006C08FB7F894E8812E2B28838FBFDF9105
:10083000CF9108959EEF980F923110F40C94DE033F
:1008400008958F929F92AF92BF92CF92DF92EF92D4
:10085000FF926B017C010E94D4014B015C01C11429
:10086000D104E104F104F1F00E94D401DC01CB01D8
:1008700088199909AA09BB09883E9340A105B105C9
:1008800070F321E0C21AD108E108F10888EE880E61
:1008900083E0981EA11CB11CC114D104E104F10431
:1008A00019F7DDCFFF90EF90DF90CF90BF90AF9022
:1008B0009F908F9008951F920F920FB60F92112460
:1008C0002F933F938F939F93AF93BF9380914C014E
:1008D00090914D01A0914E01B0914F01309137019F
:1008E00023E0230F2D3720F40196A11DB11D05C073
:1008F00026E8230F0296A11DB11D20933701809396
:100900004C0190934D01A0934E01B0934F01809103
:10091000380190913901A0913A01B0913B010196C3
:10092000A11DB11D8093380190933901A0933A0124
:10093000B0933B01BF91AF919F918F913F912F91C8
:100940000F900FBE0F901F9018951F920F920FB629
:100950000F9211242F933F934F935F936F937F9345
:100960008F939F93AF93BF93EF93FF93E091020117
:10097000F09103010995FF91EF91BF91AF919F9184
:100980008F917F916F915F914F913F912F910F9038
:100990000FBE0F901F9018951F920F920FB60F92D7
:1009A00011242F933F934F935F936F937F938F9374
:1009B0009F93AF93BF93EF93FF93E0910001F0916A
:1009C00001010995FF91EF91BF91AF919F918F9197
:1009D0007F916F915F914F913F912F910F900FBE3B
:1009E0000F901F9018951F920F920FB60F9211241F
:1009F0000F900FBE0F901F9018958F929F92AF92FD
:100A0000BF92CF92DF92EF92FF920F931F93CF93FB
:100A1000DF9300D0CDB7DEB749832A83660F771FF7
:100A2000FC01EA5AFF4F00811181000F111FFC01E8
:100A30009F01281B390B2017310714F41192F8CFAE
:100A40002981FC01E60FF71F21832A8120837C0185
:100A500024E5E20EF11CF701408151814830510537
:100A600058F09A01285031092630310550F0E8E25B
:100A7000F0E0A8E2B0E009C0EBE2F0E0ABE2B0E009
:100A800004C0E5E2F0E0A5E2B0E06C914E30510523
:100A900014F04E5002C04770552721E030E001C0ED
:100AA000220F4A95EAF7209526232083FC01E85A75
:100AB000FF4F2081080F191F222391F15C01C8010B
:100AC0008A199B091816190604F5F80182908F01FE
:100AD00087E0C82ED12C912CB4010C2C02C0759546
:100AE00067950A94E2F7617077278BE00E944F03C5
:100AF00061E08DE00E944F0360E08DE00E944F03B3
:100B0000F1E0CF1AD10840F7DACFF7012081318127
:100B100028303105C0F4EBE2F0E0ABE2B0E020C0F9
:100B200020E52CBD21E02DBDF8019F01281B390BCC
:100B30001216130654F722912EBD00000DB407FEC5
:100B4000FDCF2EB5F2CFC9010897069728F4E5E24C
:100B5000F0E0A5E2B0E004C0E8E2F0E0A8E2B0E036
:100B60009C912E30310514F02E5002C0277033278F
:100B700081E001C0880F2A95EAF7892B80830F90C6
:100B80000F90DF91CF911F910F91FF90EF90DF9029
:100B9000CF90BF90AF909F908F900895CF92DF92AB
:100BA000EF92FF920F931F93CF93DF9377FD23C0B4
:100BB000FC01EA5AFF4F2081318162177307DCF490
:100BC000EB017C016B0183E0CC0CDD1C8A95E1F725
:100BD00001E010E0F801EC0DFD1DEE0DFF1D178684
:100BE00020E0402FBE01C7010E94FD040F5F1F4F90
:100BF0000930110579F7DF91CF911F910F91FF9087
:100C0000EF90DF90CF9008952F923F925F926F9276
:100C10007F928F929F92AF92BF92CF92DF92EF928C
:100C2000FF920F931F93CF93DF937C013901DA0179
:100C30005C90232B19F466246A94762C8A011A019D
:100C4000260E371EC0E0D0E0812C912C87E0C82E04
:100C5000D12C0215130509F444C08614970408F03A
:100C600068C05801F70180819181FC01A081B181A8
:100C7000F80121918F01E22F0C2E01C0EE0F0A9492
:100C8000EAF7652D6E2B6F77ED91FC9109958FEF4B
:100C9000881A980AD5016C9170E0C6018C1B9D0BD7
:100CA00002C0759567958A95E2F7562E2196C73052
:100CB000D10578F28614970461F2F7018081918161
:100CC000DC01ED91FC91652D6F770190F081E02DB5
:100CD0000995BFEF8B1A9B0A551C5524551C279765
:100CE000E6CF209731F18614970418F5F70180813B
:100CF0009181DC01ED91FC9161E070E001C0660F33
:100D0000CA95EAF7615065210190F081E02DDF91ED
:100D1000CF911F910F91FF90EF90DF90CF90BF90F8
:100D2000AF909F908F907F906F905F903F902F90AB
:100D30000994DF91CF911F910F91FF90EF90DF9079
:100D4000CF90BF90AF909F908F907F906F905F906B
:100D50003F902F900895DF92EF92FF920F931F9391
:100D6000CF93DF93FC01E058FF4FD080DD2009F4E2
:100D70005CC0319600811181D8011196FC901197C9
:100D8000EC90EC01C05CDF4F88819981009709F4F9
:100D90004CC0DC01ED91FC910190F081E02D60EF01
:100DA000099588819981DC01ED91FC910190F08198
:100DB000E02D69E7099588819981DC01ED91FC912D
:100DC0000190F081E02D6E2D099588819981DC01DB
:100DD000ED91FC910190F081E02D6F2D0995780146
:100DE000B2E0EB0EF11C0D0D111DE016F10661F0E5
:100DF00020E030E0A70161E070E0CE010E9404062F
:100E0000EFEFEE1AFE0AF1CF88819981DC01ED91B6
:100E1000FC910190F081E02D67EFDF91CF911F9160
:100E20000F91FF90EF90DF900994DF91CF911F9188
:100E30000F91FF90EF90DF900895009711F00C94C0
:100E4000AB060895DC01ED91FD918081ED91FD915E
:100E50009081ED91FD916C9163708E2309F0646037
:100E60009F2309F06860EFE3F7E0E60FF11D659559
:100E700065956D936D917D918D919D91099423C0A0
:100E80001AC012C016C010C01EC009C014C013C0C2
:100E900006C019C009C00DC007C00DC014C0625003
:100EA0007040804090400BC0615070408040904046
:100EB00006C06E5F01C06F5F7F4F8F4F9F4F9E9345
:100EC0008E937E936E9308958091300190913101BD
:100ED0000C94220780912E0190912F010C942207EF
:100EE0000F931F93CF93DF93EC01062F142F62E033
:100EF000802F0E94DE0362E0812F0E94DE03802F9C
:100F000090E0FC01E25DFE4FE491F0E0EE0FFF1F88
:100F1000E859FF4FA591B491B983A883FC01E65E1F
:100F2000FE4F84918C83212F30E0F901E25DFE4F6A
:100F30009491E92FF0E0EE0FFF1FE859FF4F459124
:100F400054915B834A83F901E65EFE4FE491ED83A1
:100F50001F82188619861A86EBE3FFE13197F1F7B5
:100F6000EC91E82381E009F480E0FA0120819D8181
:100F7000922309F082608E83BE01802F0E944F026F
:100F80008B87BE01812F0E944F022B8590E0820F3C
:100F9000911D8B87DF91CF911F910F910895EF9253
:100FA000FF920F931F93CF93DF93C82F80914D0231
:100FB00090914E020097C9F17A018B01DC01ED910D
:100FC000FC910190F081E02D60EF099580914D0238
:100FD00090914E02DC01ED91FC910190F081E02DA9
:100FE0006C2F0995E7010E0D1F1DC017D10759F091
:100FF00020E030E0AE0161E070E08DE492E00E941C
:1010000004062196F2CF80914D0290914E02DC01B0
:10101000ED91FC910190F081E02D67EFDF91CF9190
:101020001F910F91FF90EF900994DF91CF911F9145
:101030000F91FF90EF900895CF93DF93FC01A08173
:10104000B181109701F1EC01ED91FC9111970190A4
:10105000F081E02D69EFCD01099588819981DC014E
:10106000ED91FC910190F081E02D62E0099588817D
:101070009981DC01ED91FC910190F081E02D65E01A
:10108000DF91CF910994DF91CF9108950F931F9332
:10109000CF93DF9341155105E9F061157105D1F04A
:1010A000FC01248135812115310519F4FB011082E1
:1010B00011C0EA0121972C173D0708F4E9018B01C3
:1010C000FC0160817181AE01C8010E941414C00F3F
:1010D000D11F1882DF91CF911F910F9108951F9317
:1010E000CF93DF93182FEB0180915202909153021E
:1010F0006817790748F46091500270915102C60F49
:10110000D71F188380E018C0E0917F02F091800221
:10111000309711F481E010C081E080934F028091FC
:101120006B0290916C02099580915202909153024A
:10113000C817D90778F7DFCFDF91CF911F910895B6
:10114000CF93DF93EC01FB0120E030E0CF01861B61
:10115000970B2C173D0778F4DB01A20FB31F9C916E
:10116000908311964C91479544274795942B9193E2
:101170002E5F3F4FEBCFDF91CF910895CF93DF9359
:10118000CDECD2E08E819F810E94A212888199814C
:10119000DF91CF910C94A212CF93DF93CDB7DEB73E
:1011A000A1970FB6F894DEBF0FBECDBF789484B57B
:1011B000826084BD84B5816084BD85B5826085BD53
:1011C00085B5816085BD80916E00816080936E00E1
:1011D00010928100809181008260809381008091D3
:1011E0008100816080938100809180008160809384
:1011F00080008091B10084608093B1008091B00044
:1012000081608093B00080917A00846080937A003E
:1012100080917A00826080937A0080917A00816068
:1012200080937A0080917A00806880937A0010928F
:10123000C10061E08CE00E94DE0360E08CE00E946F
:101240004F0360E271E0CE0101960E94E202098143
:101250001A8168E271E0C8010E942E147C016FE2DD
:1012600070E0C8010E942314009739F46CE570E027
:10127000C8010E942314009719F08C010F5F1F4FC3
:10128000E114F10449F4F80101900020E9F7E01BB2
:10129000EF5FE0938D0206C0E01AF10AE394E39455
:1012A000E0928D0280918E0290918F020E94A21294
:1012B000E0908D02F12CC70101960E940D129093CF
:1012C0008F0280938E02FC01EE0DFF1D108232E032
:1012D000D32EDC01DC9225E011962C93A70142501D
:1012E0005109B80102960E94141484E892E0909388
:1012F0003D0180933C0181E892E090933F0180930F
:101300003E018AE194E090934301809342018BE98E
:1013100093E09093490180934801E0918001F0911E
:101320008101D082E0918001F09181011082E091F1
:101330007C01F0917D011082E0917E01F0917F01AE
:1013400080E1808310928801E0918401F091850111
:1013500086E08083E0918201F09183018081806149
:101360008083E0918201F091830180818860808395
:10137000E0918201F0918301808180688083E09117
:101380008201F091830180818F7D80838091CC02E6
:10139000811150C061E08DE00E94DE0362ED70E0DB
:1013A00080E090E00E94210461E08DE00E944F0304
:1013B00068E270E080E090E00E94210460E08DE04F
:1013C0000E944F0362ED70E080E090E00E942104F3
:1013D00061E08DE00E944F0368E270E080E090E001
:1013E0000E94210460E08DE00E944F036AEF70E0EC
:1013F00080E090E00E94210410E062ED70E080E067
:1014000090E00E94210461E08DE00E944F0368E2B9
:1014100070E080E090E00E94210460E08DE00E9496
:101420004F031F5F153049F76DE770E080E090E0F3
:101430000E94210480E791E090938C0280938B02BC
:1014400090934E0280934D028DE492E00E941C081E
:101450008DE092E00E94AB0689819A810E94A212DF
:101460008EE393E090935D0180935C0182E393E0CF
:1014700090935F0180935E0100E010E080912F0364
:1014800090913003081719073CF421E04CE0B801B3
:1014900089ED92E00E94FD04B80189ED92E00E947E
:1014A000CE0580912F0390913003081719073CF463
:1014B00021E04AE0B80189ED92E00E94FD040F5F4F
:1014C0001F4F03301105D1F6FE0131967F0100E573
:1014D00011E0C12CC11004C089B18C7FD82E12C07C
:1014E000F1E0CF120AC083B196B140E4949F90011D
:1014F00011248F73D82ED22A05C086B18C73D82EB2
:10150000D694D694D8018C918D1501F18D2D90E053
:101510009E8B8D8B80914D0290914E020097A1F091
:10152000DC01ED91FC910190F081E02D6C2D606962
:10153000099522E030E0AE014B5E5F4F62E070E063
:101540008DE492E00E940406F801D082C3940F5FFC
:101550001F4FF3E0CF12BECFDD24D39402E010E0A2
:1015600080918B0290918C02DC01ED91FC910084C2
:10157000F185E02D0995892B09F4D0C180918B026A
:1015800090918C02DC01ED91FC910284F385E02DB9
:1015900009959C018F3FBFEF9B0711F3982F809116
:1015A0005802882309F492C0973F09F07EC0109238
:1015B0005802A0915002B09151026C916137C1F173
:1015C000693709F05CC0E0918502F091860230979E
:1015D00039F28091590290915A028330910538F482
:1015E00020E030E040E050E060E070E01BC0BD0172
:1015F0006D5F7F4F03970E94A008BC016D5F7F4F16
:1016000080E00E946F08E0915002F09151029F012A
:101610002D5F3F4F428150E0618170E0E091850293
:10162000F09186028091670290916802099598CFA7
:101630008091810290918202892B09F491CFBD01A2
:101640006F5F7F4F8091590290915A0201970E94DB
:10165000A008BC016F5F7F4F80E00E946F0860911F
:101660005002709151026F5F7F4FE0918102F091C3
:10167000820280916D0290916E02099571CFE09186
:101680008302F0918402309709F46ACF9D012F5FA5
:101690003F4F4091590250915A0241505109809157
:1016A0006F029091700209955BCF60915902709121
:1016B0005A02822F0E946F088091590290915A021B
:1016C000019690935A02809359024ACF6091560234
:1016D000709157026115710509F4AFC027FDADC0C7
:1016E000615071097093570260935602822F0E94D5
:1016F0006F088091560290915702892B09F030CFE4
:1017000080915402882309F42BCF803D09F47FC0D7
:1017100030F4803939F1803C09F466C08BC0843FD5
:10172000E1F1853F09F44DC0803E09F083C0E091AE
:101730007302F0917402309709F47CC0A0915002BA
:10174000B09151028C9111964C9150E020E8829F0B
:10175000400D511D11246091550280915B029091C2
:101760005C0267C0E0917502F0917602309709F44F
:1017700061C0A0915002B09151028C9111964C9190
:1017800050E030E8839F400D511D112460915502B7
:1017900080915D0290915E024CC0E0917B02F091DD
:1017A0007C02309709F446C0A0915002B0915102DA
:1017B0004C9150E011966C9180916302909164027B
:1017C00038C0E0917D02F0917E02309799F1A091AE
:1017D0005002B09151024C9150E011966C91809161
:1017E00065029091660225C0E0917702F09178023F
:1017F000309701F1A0915002B09151024C9150E00C
:101800006091550280915F029091600212C0E09158
:101810007902F0917A02309769F0A0915002B0916C
:1018200051024C9150E0609155028091610290917B
:10183000620209951092540293CE903F30F4822FA9
:101840008F7080935502922F907F903F89F158F4CA
:10185000903C29F118F49039E9F082CE903DF9F0EE
:10186000903EC1F07DCE993F09F44BC028F48CE046
:10187000890F823078F074CE9F3F09F071CE1092BC
:10188000570210925602109254021092550280E0B4
:1018900090E015C0109357020093560206C0A1E0D5
:1018A000B0E0B0935702A09356029093540258CEE2
:1018B000D092580210925A021092590251CE2091A1
:1018C0005202309153028217930748F4E09150027C
:1018D000F0915102E80FF91F10820196F0CF10929B
:1018E000580210925A0210925902E0918902F09126
:1018F0008A02309709F434CE80917102909172027D
:101900000BC0E0918702F0918802309709F428CE4D
:101910008091690290916A02099522CE80916C01B2
:1019200090916D01A0916E01B0916F01809368015B
:1019300090936901A0936A01B0936B012FB7F8945B
:1019400080914C0190914D01A0914E01B0914F01B9
:101950002FBF80936C0190936D01A0936E01B093A3
:101960006F01009168011091690120916A01309125
:101970006B01BC01CD01601B710B820B930B60935B
:1019800064017093650180936601909367010E94E2
:10199000AC10209160013091610140916201509141
:1019A00063010E9496112B013C0121EA3EE04AEEC0
:1019B0005CE30E940212181654F0409260015092AB
:1019C000610160926201709263011B8E0AC01092E5
:1019D000600110926101109262011092630131E086
:1019E0003B8F8CE591E09A8F898FA4E5B1E0B88FA9
:1019F000AF8BEAE0F1E0FD8FEC8F2DEC222E22E0A0
:101A0000322E8101A98DBA8DCD90DD90BA8FA98F2C
:101A1000F6018385823028F4F894C6010E942207DB
:101A200001C0F894D60117964D905D906D907C9012
:101A30001A977894EF89F88D80809180A280B38086
:101A40006CE271E0CE010F960E94E2022AE0A7014B
:101A5000C301B2010E946B10F70101900020E9F769
:101A60003197EE19FF09CB88DC883097A1F0CE0EB4
:101A7000DF1EB601CE010F960E949002882359F016
:101A80002F8538898B899C89B701820F931F0E940B
:101A90000D14DC8ACB8A481459046A047B0439F19A
:101AA000ADB6BEB64B895C892DB73EB7241B350B4E
:101AB0000FB6F8943EBF0FBE2DBF8DB79EB70196EF
:101AC0006C01BC01CE010F960E944608F601019000
:101AD0000020E9F73197BF016C197D09A60181E764
:101AE0000E94CF070FB6F894BEBE0FBEADBED801A0
:101AF0008D919C9111970097D1F06F857889611530
:101B0000710599F012964D915C9113972B893C8940
:101B10004217530750F00E940D148B899C89D801FD
:101B200015969C938E93149713C00E94A2128F85D2
:101B30009889F8019183808389899A899383828324
:101B40008B899C8995838483188A1F861A8A198AAF
:101B50001C8A1B8A8F8598890E94A212EF89F88DB2
:101B600080819181A281B3819C01AD012419350945
:101B700046095709DF014D925D926D927D92B88FB3
:101B8000AF8B6901EC8DFD8DB190FD8FEC8F61E025
:101B90008B2D2E8F3F8F48A359A30E94DE032E8DDD
:101BA0003F8DC114D10409F449C0FFEFCF16D10411
:101BB00009F446C0EB2DF0E0E458FF4FE491E33028
:101BC000F9F048F4E130B9F0E230A1F584B5806273
:101BD00084BD28BD39C0E730E9F0E83019F1E430C0
:101BE00049F58091800080628093800030938B0063
:101BF00020938A0029C084B5806884BD27BD24C095
:101C000080918000806880938000309389002093C9
:101C100088001AC08091B00080688093B000209343
:101C2000B30012C08091B00080628093B000209316
:101C3000B4000AC020E8C216D10414F460E001C068
:101C400061E08B2D0E944F030A5F1F4F898D9A8D93
:101C50008056914009F0D6CE3B8D332309F485C0E0
:101C600099ED692E92E0792E00E010E01A82198237
:101C70001C821B821E821D82D1016D917C91119765
:101C80006115710539F014964D915C911597C70156
:101C90000E94B7024DB65EB6B80189ED92E00E948F
:101CA000CE05AD80BE80B9E0AB16B1040CF04DC0DE
:101CB000EDB7FEB7EA19FB090FB6F894FEBF0FBEE9
:101CC000EDBF6DB77EB76F5F7F4FA501C7010E9463
:101CD0004608CC24C394D12CC60101978A159B05D4
:101CE0007CF5C5018C199D092D813E8182179307D2
:101CF00020F4E981FA81309729F410925301E3E549
:101D0000F1E002C0E80FF91FE08180912F0390916C
:101D100030030817190784F4E7FDE0E2F0E0E0572C
:101D2000FF4F2491F301EC0DFD1D27874C2DB801C9
:101D300089ED92E00E94FD04FFEFCF1ADF0ACCCFBD
:101D40000FB6F8945EBE0FBE4DBE89819A810E9487
:101D5000A2120F5F1F4F26E0220E311C38E0630EE7
:101D6000711C0330110509F081CF0E94CA01AFCB6D
:101D7000CF93DF93109273011092720188EE93E07B
:101D8000A0E0B0E08093740190937501A093760178
:101D9000B093770182E191E090937101809370019B
:101DA00085EC90E090937D0180937C0184EC90E041
:101DB00090937F0180937E0180EC90E0909381016D
:101DC0008093800181EC90E0909383018093820165
:101DD00082EC90E0909385018093840186EC90E002
:101DE00090938701809386011092890110928A0155
:101DF00010928B0110928C018DE092E010924E02B5
:101E000010924D02909351028093500220E430E0F2
:101E100030935302209352021092540210925502B2
:101E200010925702109256021092580210925A02C3
:101E30001092590210925C0210925B0210925E02A4
:101E400010925D021092600210925F021092620284
:101E50001092610210926402109263021092660264
:101E60001092650210926C0210926B0210926E0238
:101E700010926D021092700210926F021092720214
:101E8000109271021092800210927F0210924F0203
:101E900010928D0210928F0210928E021092CC023C
:101EA00025E432E030937402209373022BE332E096
:101EB00030937602209375022DE132E03093780260
:101EC0002093770223E132E030937A022093790263
:101ED00021E332E030937C0220937B0227E232E060
:101EE00030937E0220937D022AE032E0309382021A
:101EF000209381022FEF31E03093840220938302FC
:101F00002DE137E03093860220938502909368029A
:101F1000809367022AE732E0309388022093870299
:101F200090936A02809369028EEF91E090938A0207
:101F30008093890243E062E08EE393E00E947007A1
:101F400043E162E182E393E00E9470071092310363
:101F500088E090E090932E0380932D0383E090E03F
:101F60009093300380932F03239A259A209A8CB55F
:101F70008F7D8CBD8CB5837F8CBDCFB7F89480915D
:101F80004A03811127C0E8E3F1E08491E4E2F1E043
:101F90009491E82FF0E0EE0FFF1FE05FFE4FA59158
:101FA000B491EC91E92321F461E08AE00E944F03AF
:101FB00061E08AE00E94DE038CB580618CBD8CB547
:101FC00080648CBD61E08DE00E94DE0361E08BE007
:101FD0000E94DE0380914A038F5F80934A03CFBF44
:101FE00020912D0330912E032830310548F0C9018E
:101FF0000897069750F4E5E2F0E0A5E2B0E009C0EA
:10200000EBE2F0E0ABE2B0E004C0E8E2F0E0A8E22E
:10201000B0E09C912E30310514F02E5002C0277094
:10202000332781E001C0880F2A95EAF7892B808346
:10203000E9EEF2E0119283E0E932F807D9F7C0E067
:10204000D0E080912F0390913003C817D907ACF5E9
:1020500020E04FE0BE0189ED92E00E94FD04D7FD33
:102060000EC080912F0390913003C817D9073CF41C
:1020700027E04BE0BE0189ED92E00E94FD0420E0E4
:1020800049E0BE0189ED92E00E94FD04BE0189EDA8
:1020900092E00E94CE05D7FD0EC080912F03909153
:1020A0003003C817D9073CF420E04CE0BE0189EDAD
:1020B00092E00E94FD042196C4CF6CE271E08DECA9
:1020C00092E00E94E2026CE271E083ED92E0DF9127
:1020D000CF910C94E202BB272A3051F4992342F4A9
:1020E000BDE290958095709561957F4F8F4F9F4F82
:1020F0000C947B10BB27FA01A62F6217710581058E
:102100009105330B30FB66F0AA27660F771F881FF7
:10211000991FAA1FA21710F0A21B63953850A9F7A8
:10212000A05DAA3308F0A95DA19336F7B111B19370
:102130001082CA010C949C10DC01FC01672F719184
:102140007723E1F7329704C07C916D93708362919D
:10215000AE17BF07C8F30895E89409C097FB3EF493
:1021600090958095709561957F4F8F4F9F4F9923E4
:10217000A9F0F92F96E9BB279395F6958795779562
:102180006795B795F111F8CFFAF4BB0F11F460FF22
:102190001BC06F5F7F4F8F4F9F4F16C0882311F07A
:1021A00096E911C0772321F09EE8872F762F05C08E
:1021B000662371F096E8862F70E060E02AF09A9529
:1021C000660F771F881FDAF7880F9695879597F91E
:1021D0000895990F0008550FAA0BE0E8FEEF1616B8
:1021E0001706E807F907C0F012161306E407F5070B
:1021F00098F0621B730B840B950B39F40A2661F07F
:10220000232B242B252B21F408950A2609F4A14021
:10221000A6958FEF811D811D089597F99F6780E82E
:1022200070E060E008959FEF80EC089500240A9428
:102230001616170618060906089500240A941216A1
:102240001306140605060895092E0394000C11F4D4
:10225000882352F0BB0F40F4BF2B11F460FF04C081
:102260006F5F7F4F8F4F9F4F089557FD9058440FDA
:10227000551F59F05F3F71F04795880F97FB991FE5
:1022800061F09F3F79F087950895121613061406A2
:10229000551FF2CF4695F1DF08C01616170618062F
:1022A000991FF1CF86957105610508940895E8940A
:1022B000BB2766277727CB0197F908952F923F9286
:1022C0004F925F926F927F928F929F92AF92BF9246
:1022D000CF92DF92EF92FF920F931F93CF93DF93F2
:1022E000CDB7DEB7CA1BDB0B0FB6F894DEBF0FBE4F
:1022F000CDBF09942A88398848885F846E847D849C
:102300008C849B84AA84B984C884DF80EE80FD809D
:102310000C811B81AA81B981CE0FD11D0FB6F89413
:10232000DEBF0FBECDBFED0108955058BB27AA27D1
:102330000E94AD110C9424110E94161138F00E94D5
:102340001D1120F039F49F3F19F426F40C94131159
:102350000EF4E095E7FB0C940D11E92F0E94351166
:1023600058F3BA17620773078407950720F079F4CA
:10237000A6F50C9457110EF4E0950B2EBA2FA02D54
:102380000B01B90190010C01CA01A0011124FF2722
:10239000591B99F0593F50F4503E68F11A16F0401D
:1023A000A22F232F342F4427585FF3CF469537951C
:1023B0002795A795F0405395C9F77EF41F16BA0BE1
:1023C000620B730B840BBAF09150A1F0FF0FBB1F8F
:1023D000661F771F881FC2F70EC0BA0F621F731FD8
:1023E000841F48F4879577956795B795F7959E3F35
:1023F00008F0B0CF9395880F08F09927EE0F9795C6
:10240000879508950E94E91008F48FEF0895EE0F64
:10241000FF1F0590F491E02D0994CF93DF93823054
:10242000910510F482E090E0E0914D03F0914E03AD
:1024300020E030E0C0E0D0E0309711F140815181E0
:1024400048175907C0F04817590761F482819381F2
:10245000209719F09B838A832BC090934E0380931F
:102460004D0326C02115310519F04217530718F402
:102470009A01BE01DF01EF010280F381E02DDCCF84
:102480002115310509F1281B390B2430310590F451
:1024900012968D919C9113976115710521F0FB01A6
:1024A0009383828304C090934E0380934D03FD0178
:1024B000329644C0FD01E20FF31F819391932250A5
:1024C00031092D933C933AC020914B0330914C033A
:1024D000232B41F4209106013091070130934C03E6
:1024E00020934B0320910401309105012115310502
:1024F00041F42DB73EB74091080150910901241BCA
:10250000350BE0914B03F0914C03E217F307A0F475
:102510002E1B3F0B2817390778F0AC014E5F5F4F39
:102520002417350748F04E0F5F1F50934C0340931C
:102530004B038193919302C0E0E0F0E0CF01DF9183
:10254000CF9108950F931F93CF93DF93009709F4D2
:102550008CC0FC0132971382128200914D031091BE
:102560004E030115110581F420813181820F931FE3
:1025700020914B0330914C032817390779F5F093DC
:102580004C03E0934B0371C0D80140E050E0AE171C
:10259000BF0750F412962D913C911397AD01211570
:1025A000310509F1D901F3CF9D01DA01338322838B
:1025B00060817181860F971F8217930769F4EC0180
:1025C00028813981260F371F2E5F3F4F31832083AB
:1025D0008A819B8193838283452B29F4F0934E0358
:1025E000E0934D0342C01396FC93EE931297ED01D6
:1025F000499159919E01240F351FE217F30771F499
:1026000080819181840F951F029611969C938E93E1
:102610008281938113969C938E931297E0E0F0E071
:10262000D80112968D919C911397009719F0F8019B
:102630008C01F6CF8D919C9198012E5F3F4F820FB8
:10264000931F20914B0330914C032817390769F4ED
:10265000309729F410924E0310924D0302C013825A
:10266000128210934C0300934B03DF91CF911F9183
:102670000F910895A0E0B0E0E0E4F3E10C94621162
:10268000EC01009721F4CB010E940D12B8C0FC01AF
:10269000E60FF71F9C0122503109E217F30708F4F7
:1026A000ACC0D9010D911C91119706171707B0F016
:1026B0000530110508F49FC0C801049786179707D5
:1026C00008F499C002501109061B170B01931193CE
:1026D0006D937C93CF010E94A2128DC05B01A01A62
:1026E000B10A4C01800E911EA0914D03B0914E0392
:1026F00040E050E0E12CF12C109709F44AC0A815F5
:10270000B905D1F56D907C901197630182E0C80EF8
:10271000D11CCA14DB0480F1A3014A195B096A01C8
:1027200082E0C80ED11C1296BC9012971396AC9101
:10273000B5E0CB16D10440F0B282A383518340832D
:10274000D9016D937C930AC00E5F1F4FC301800FA8
:10275000911FF90191838083EB2DFA2FE114F1048D
:1027600031F0D7011396FC93EE93129744C0F09387
:102770004E03E0934D033FC08D919C9111974817F4
:10278000590708F4AC017D0112960D90BC91A02D63
:10279000B3CF80914B0390914C0388159905E1F4D8
:1027A00046175707C8F480910401909105010097DE
:1027B00041F48DB79EB74091080150910901841BE7
:1027C000950BE817F907C8F4F0934C03E0934B031B
:1027D000F901718360830FC0CB010E940D127C014F
:1027E000009759F0A801BE010E940414CE010E9476
:1027F000A212C70104C0CE0102C080E090E0CDB7B4
:10280000DEB7EEE00C947E11FB01DC0102C001900A
:102810000D9241505040D8F70895FB01DC01019022
:102820000D920020E1F70895FB01DC01415050407A
:1028300048F001900D920020C9F701C01D9241504F
:102840005040E0F70895FC0181E090E00190061609
:1028500009F4CF010020D1F701970895FB015191B0
:102860005523A9F0BF01DC014D9145174111E1F756
:1028700059F4CD010190002049F04D9140154111CE
:10288000C9F3FB014111EFCF81E090E0019708957A
:1028900010E0C2EAD0E004C0FE010E9407122196B7
:0A28A000C33AD107C9F7F894FFCF3F
:1028AA00F901F90100004F0380000E0F101100001A
:1028BA0000006101CE00F900A8012A0108011C01EB
:0E28CA005370696E6E6572002E6370700000B0
:107E0000112484B714BE81FFF0D085E080938100F7
:107E100082E08093C00088E18093C10086E0809377
:107E2000C20080E18093C4008EE0C9D0259A86E02C
:107E300020E33CEF91E0309385002093840096BBD3
:107E4000B09BFECF1D9AA8958150A9F7CC24DD24C4
:107E500088248394B5E0AB2EA1E19A2EF3E0BF2EE7
:107E6000A2D0813461F49FD0082FAFD0023811F036
:107E7000013811F484E001C083E08DD089C08234E0
:107E800011F484E103C0853419F485E0A6D080C0E4
:107E9000853579F488D0E82EFF2485D0082F10E0AE
:107EA000102F00270E291F29000F111F8ED06801E7
:107EB0006FC0863521F484E090D080E0DECF843638
:107EC00009F040C070D06FD0082F6DD080E0C81688
:107ED00080E7D80618F4F601B7BEE895C0E0D1E017
:107EE00062D089930C17E1F7F0E0CF16F0E7DF06D8
:107EF00018F0F601B7BEE89568D007B600FCFDCFD4
:107F0000A601A0E0B1E02C9130E011968C91119780
:107F100090E0982F8827822B932B1296FA010C0160
:107F200087BEE89511244E5F5F4FF1E0A038BF0790
:107F300051F7F601A7BEE89507B600FCFDCF97BE46
:107F4000E89526C08437B1F42ED02DD0F82E2BD052
:107F50003CD0F601EF2C8F010F5F1F4F84911BD097
:107F6000EA94F801C1F70894C11CD11CFA94CF0C13
:107F7000D11C0EC0853739F428D08EE10CD085E9AC
:107F80000AD08FE07ACF813511F488E018D01DD067
:107F900080E101D065CF982F8091C00085FFFCCF94
:107FA0009093C60008958091C00087FFFCCF809118
:107FB000C00084FD01C0A8958091C6000895E0E648
:107FC000F0E098E1908380830895EDDF803219F02E
:107FD00088E0F5DFFFCF84E1DECF1F93182FE3DFCA
:107FE0001150E9F7F2DF1F91089580E0E8DFEE27F6
:047FF000FF270994CA
:027FFE00040479
:0400000300007E007B
:00000001FF
